:100000000C94D4000C94FC000C94FC000C94FC00A8
:100010000C94FC000C94FC000C94FC000C94FC0070
:100020000C94FC000C94FC000C94EF030C945E0404
:100030000C94FC000C94FC000C94FC000C94FC0050
:100040000C94FC000C94FC000C94FC000C94FC0040
:100050000C94FC000C94FC000C94FC000C94EB063B
:100060000C94FC000C94FC000C94FC000C94FC0020
:100070000C94FC000C94FC000C94FC000C94FC0010
:100080000C9490060C94FC000C94FC000C94FC0066
:100090000C94FC000C94FC000C94FC000C94FC00F0
:1000A0000C94FC000C94FC000C94FC00000000007C
:1000B000240027002A002D003000080B0002020255
:1000C00000000904000001020200000524001001E4
:1000D0000524010101042402060524060001070588
:1000E000810310004009040100020A000000070516
:1000F00002024000000705830240000004030904D7
:1001000012010002EF020140412337800001010289
:10011000030141726475696E6F204C4C430041725B
:100120006475696E6F204D6963726F000000000096
:100130002300260029002C002F00000000020009E7
:100140000F0000030401000C00000000000000008C
:1001500000000000000000000004080201104080C0
:10016000401020408040800802040180402010029E
:1001700001108010204040200000000025002800D1
:100180002B002E00310004040404040304050202C1
:100190000202040302020202060606060606040420
:1001A0000202020404039B0911241FBECFEFDAE010
:1001B000DEBFCDBF11E0A0E0B1E0E0E7F3E102C0B7
:1001C00005900D92A235B107D9F721E0A2E5B1E083
:1001D00001C01D92AC3DB207E1F710E0C4EDD0E0E4
:1001E00004C02197FE010E94B009C33DD107C9F7A1
:1001F0000E9468070C94B6090C940000FC018091E1
:100200008B01882311F13FB7F89482E08093E900D5
:100210002091F200822F90E01816190614F481E064
:1002200090E0882339F0289A44E640938A0140916F
:10023000F1004083222339F02091F200211103C004
:100240002BE62093E8003FBF08958FEF9FEF0895BE
:100250002FB7F89483E08093E9009091E800892F0C
:10026000807295FF04C09091F20080E4891B2FBF3B
:1002700008958091820181110DC082E080937E01FA
:1002800084E080937F01109281011092800181E0CF
:10029000809382018EE791E0089540916201509130
:1002A0006301209160013091610142175307B4F45A
:1002B0009091E8009570E1F39091E80092FD19C0EB
:1002C0008093F100809162019091630101968F7398
:1002D0009927892B19F48EEF8093E80080916201B1
:1002E000909163010196909363018093620181E094
:1002F000089580E00895DF92EF92FF920F931F938D
:10030000CF93DF93D82E8A01EB017B01E40EF51E1B
:10031000CE15DF0559F0D7FE12C0FE0184910E9470
:100320004D0121968111F4CF0FEF1FEFC801DF912E
:10033000CF911F910F91FF90EF90DF9008958881EA
:10034000EECF0F931F93CF93DF931F92CDB7DEB7FE
:1003500082E0898342E450E06AEB70E080E80E942A
:100360007B010E943901DC0112960D911C9101154F
:10037000110589F0D801ED91FC910280F381E02D07
:10038000BE016F5F7F4FC801099597FD04C0F8015A
:1003900000851185ECCF89810F90DF91CF911F915E
:1003A0000F910895615030F02091F100FC012083FD
:1003B0000196F8CF289A84E680938A010895CF9316
:1003C000DF931F92CDB7DEB76983DC01ED91FC911D
:1003D0000280F381E02D41E050E0BE016F5F7F4F6E
:1003E00009950F90DF91CF91089583E08093E90004
:1003F0008091F200882319F08AE38093E800089541
:100400000E94280190E00895CF93DF931F92CDB70B
:10041000DEB7FC018485958597FD08C02FEF3FEF7F
:10042000358724870F90DF91CF910895CE010196F3
:100430000E94FE00019719F4898190E0F3CF8FEFBD
:100440009FEFF0CF0F931F93CF93DF931F92CDB702
:10045000DEB78C01FC018485958597FF0BC0CE012A
:1004600001960E94FE00019771F4898190E0F801E5
:1004700095878487F801848595850F90DF91CF91CA
:100480001F910F9108958FEF9FEFF1CFFC018485AD
:10049000958597FD0BC09FB7F89482E08093E900A3
:1004A0008091F2009FBF90E0019608959FB7F89465
:1004B00082E08093E9008091F2009FBF90E0089570
:1004C00081508F3008F047C0E82FF0E0E659FD4F2B
:1004D0000C94B00987028B0279027F028302AB027F
:1004E000AB02AB028E02940298029C02A202AB0203
:1004F000A602809180008F7780938000089580917C
:1005000080008F7DF9CF80918000877FF5CF84B503
:100510008F7784BD089584B58F7DFBCF8091900047
:100520008F77809390000895809190008F7DF9CF10
:1005300080919000877FF5CF8091C0008F77809366
:10054000C00008958091C0008F7DF9CF8091C200D6
:10055000877F8093C20008951F93CF93DF93282F46
:1005600030E0F901E65CFE4F8491F901E75AFE4F55
:10057000D491F901EA57FE4FC491CC23A9F0162F6C
:1005800081110E946002EC2FF0E0EE0FFF1FE8588F
:10059000FE4FA591B4918FB7F894EC91111108C05A
:1005A000D095DE23DC938FBFDF91CF911F9108950B
:1005B000DE2BF8CFCF93DF9390E0FC01E75AFE4F9C
:1005C00024918A579E4FFC0184918823D1F090E0BA
:1005D000880F991FFC01E455FF4FA591B491FC01D0
:1005E000E858FE4FC591D49161110EC09FB7F894A1
:1005F0008C91E22FE0958E238C932881E223E8836F
:100600009FBFDF91CF9108958FB7F894EC91E22BC3
:10061000EC938FBFF6CF3FB7F89480915C01909137
:100620005D01A0915E01B0915F0126B5A89B05C058
:100630002F3F19F00196A11DB11D3FBFBA2FA92F61
:10064000982F8827BC01CD01620F711D811D911D5E
:1006500042E0660F771F881F991F4A95D1F70895CA
:100660008F929F92AF92BF92CF92DF92EF92FF92C2
:100670004B015C010E940B036B017C010E940B0388
:100680006C197D098E099F09683E734081059105AB
:10069000A8F321E0821A9108A108B10888EEC80EDB
:1006A00083E0D81EE11CF11C81149104A104B10463
:1006B00029F7FF90EF90DF90CF90BF90AF909F9081
:1006C0008F9008958F929F92AF92BF92CF92DF92B8
:1006D000EF92FF920F931F93CF93DF936C017B01F7
:1006E0008A0180910B01882309F45CC080918B0101
:1006F000882309F457C08091660180FF05C080916E
:10070000E00082608093E000E801B12C8AEFA82E1F
:1007100093E0892E2AE3922E209711F4BB20D9F181
:100720000E94280181110AC0AA94AA20D9F161E08F
:1007300070E080E090E00E943003EECF8C171D0641
:1007400011F00CF08C2F9FB7F8948092E900209163
:10075000E80025FD02C09FBFDFCF282F30E0C21B7D
:10076000D30BF701815020F041914093F100FACF73
:10077000E20EF31EBB2021F09092E800B12CEBCFEB
:100780008091E80085FDE7CF9092E800BB24B39408
:10079000209709F3F3CF5D9A84E6809365011016E4
:1007A00011063CF081E090E0F6019383828310E033
:1007B00000E0C801DF91CF911F910F91FF90EF9062
:1007C000DF90CF90BF90AF909F908F90089542E0C0
:1007D00050E066E271E08CE891E00C9462031F92B5
:1007E0000F920FB60F9211248F939F938091E10087
:1007F0009091E100937F9093E10083FF0FC01092EE
:10080000E90091E09093EB001092EC0092E390935A
:10081000ED0010928B0198E09093F00082FF22C0CF
:1008200093E09093E9009091F200992319F09AE3F4
:100830009093E80090916501992341F090916501B2
:10084000915090936501911101C05D9890918A013A
:10085000992341F090918A01915090938A019111CE
:1008600001C0289884FF18C08091E2008E7E8160CC
:100870008093E2008091E1008F7E8093E10080917F
:1008800066018E7E8061809366019F918F910F90AB
:100890000FBE0F901F90189580FFF7CF8091E20058
:1008A0008E7E80618093E2008091E1008E7E809355
:1008B000E100809166018E7E8160E5CF1F920F92EC
:1008C0000FB60F921124CF92DF92EF92FF920F9307
:1008D0001F932F933F934F935F936F937F938F93C8
:1008E0009F93AF93BF93EF93FF93CF93DF93CDB7D6
:1008F000DEB76C97DEBFCDBF1092E9008091E800B3
:1009000083FF25C068E0CE0145960E94D20182EFA8
:100910008093E8008D8987FF39C09091E80090FFAF
:10092000FCCF982F907609F034C19E894F89588D5D
:100930002F89F88C911131C0803861F58091670161
:100940008093F1001092F1008EEF8093E8006C9696
:100950000FB6F894DEBF0FBECDBFDF91CF91FF91F0
:10096000EF91BF91AF919F918F917F916F915F9127
:100970004F913F912F911F910F91FF90EF90DF903A
:10098000CF900F900FBE0F901F9018959EEF9093F1
:10099000E800C7CF1092F100D5CF913059F4811102
:1009A000D3CF4130510581F6809167018D7F8093CF
:1009B0006701CACF933049F48111C6CF4130510548
:1009C00019F6809167018260F2CF953041F48091F1
:1009D000E80080FFFCCF20682093E300B5CF96307D
:1009E00009F0A9C00B8D1C8D22E01092E900109235
:1009F000630110926201F2122EC0109261011092F6
:100A000060010E94A1011F8299E09983FA8291E01E
:100A10009E8390EA98879AEF99872091620130919E
:100A20006301275F3F4F3C832B838D831092E90046
:100A300010926301109262011093610100936001B2
:100A400049E050E0BE016F5F7F4F80E00E947B0174
:100A50000E94A10179CF10936101009360010E946F
:100A60003901DC0112960D911C910115110509F453
:100A700051C1D801ED91FC910480F581E02DBE01BA
:100A80006B5E7F4FC8010995009709F03EC1F801E0
:100A900000851185EACFF3E0FF120EC08F8988230D
:100AA00009F440C0823061F440E86DE08EE191E0ED
:100AB0000E943507811148CF81E28093EB0047CF38
:100AC000813029F440E86BE082E191E0F1CF83309E
:100AD00099F70E943901DC011296ED90FC908E018D
:100AE0000F5F1F4F6801E114F10479F0D701ED9118
:100AF000FC910680F781E02DB801C7010995080F28
:100B0000111DF701E084F184EECFD8011C92F601AB
:100B100001900020E9F73197BF016C197D0940E091
:100B2000C601C6CF6CEF70E0FB01449150E080E855
:100B30000E947B0109CF973009F4BECF983021F491
:100B400081E08093F10000CF993009F0FDCE8370F1
:100B500009F0B2CFE0E2F1E081E031E096E32191EB
:100B6000222371F08093E9003093EB00DF011197AD
:100B70002C912093EC009093ED008F5F873079F7F4
:100B80008EE78093EA001092EA008F8980938B01B0
:100B9000DBCE8B8D9C8D1092E90010926301109238
:100BA00062019093610180936001898D811192C0EF
:100BB0008E899D89913A49F4813209F07DCF47E0D1
:100BC00050E064E071E080E0B3CF913209F074CF7F
:100BD000833269F48F89988DB0E0A0E080930001A2
:100BE00090930101A0930201B0930301ADCE803236
:100BF00069F48091E80082FFFCCF67E084E091E037
:100C00000E94D2018BEF8093E8009ECE823209F0E1
:100C10009BCE8F8980930B01EEEFFFE78591949136
:100C20008B3F9C4D51F1E0E0F8E080910401909100
:100C30000501A0910601B0910701803B9440A105F8
:100C4000B105F1F480910B0180FD1AC0EE3F8AE0FE
:100C5000F80789F587E797E79183808380916000A3
:100C60008093640188E19BE00FB6F894A895809387
:100C700060000FBE9093600067CEEEEFFAE0D5CF34
:100C8000808191818737974709F05ECEA895809142
:100C900060008861809360008091640180936000AF
:100CA000EE3F2AE0F20789F08091FE0A9091FF0A58
:100CB0009183808349CE808191818737980751F253
:100CC0009093FF0A8093FE0AC5CF1092FF0A1092FC
:100CD000FE0A3ACE0E943901DC0112960D911C9158
:100CE0000115110509F4E8CED801ED91FC910190B0
:100CF000F081E02DBE016B5E7F4FC8010995811127
:100D000023CEF80100851185EBCF181619060CF4D7
:100D10001BCED2CEF1E0FF12BECE60E071E004CF78
:100D20001F920F920FB60F9211248F939F93AF9340
:100D3000BF93EF93FF938091720190917301A09103
:100D40007401B0917501892B8A2B8B2BA1F19091A5
:100D50006901E0916A01F0916B01808189278083AC
:100D60008091720190917301A0917401B09175010D
:100D7000181619061A061B069CF4809172019091B0
:100D80007301A0917401B09175010197A109B10996
:100D90008093720190937301A0937401B0937501D5
:100DA000FF91EF91BF91AF919F918F910F900FBEE7
:100DB0000F901F901895809171008D7F8093710026
:100DC00080916901E0916A01F0916B0190818095B9
:100DD00089238083E5CF1F920F920FB60F921124C3
:100DE0002F933F938F939F93AF93BF93809158011D
:100DF00090915901A0915A01B0915B013091570136
:100E000023E0230F2D3758F50196A11DB11D209326
:100E100057018093580190935901A0935A01B093C0
:100E20005B0180915C0190915D01A0915E01B091A8
:100E30005F010196A11DB11D80935C0190935D013E
:100E4000A0935E01B0935F01BF91AF919F918F918D
:100E50003F912F910F900FBE0F901F90189526E88D
:100E6000230F0296A11DB11DD2CFEF92FF920F93D7
:100E70001F93CF93DF93F82E192FE62E042F81E0D6
:100E8000860F880F0E944D0183E00E944D01CF2DF7
:100E9000D12FEC0EFD2EF11CCE15DF05B9F007FFAA
:100EA00013C0FE0184910E944D01182F80E00E9422
:100EB0004D01812321968111EFCFDF91CF911F91B9
:100EC0000F91FF90EF9008958881EDCF81E0F5CFED
:100ED000789484B5826084BD84B5816084BD85B515
:100EE000826085BD85B5816085BD80916E00816021
:100EF00080936E00109281008091810082608093C7
:100F000081008091810081608093810080918000C8
:100F10008160809380008091910082608093910035
:100F20008091910081608093910080919000816018
:100F3000809390008091C10084608093C100809173
:100F4000C10082608093C1008091C1008160809364
:100F5000C1008091C30081608093C3008091C00074
:100F600082608093C0008091C20081608093C20043
:100F700080917A00846080937A0080917A00826008
:100F800080937A0080917A00816080937A008091CA
:100F90007A00806880937A0010928B01109267012A
:100FA000109266018091D70081608093D70080EA1B
:100FB0008093D80089B5806189BD89B5826089BD7B
:100FC00009B400FEFDCF61E070E080E090E00E9497
:100FD00030038091D8008F7C80618093D80080910D
:100FE000E000807F8093E0008091E1008E7E80931E
:100FF000E1008DE08093E200559A209A5D98289850
:1010000060E00E94DA0261E08CE00E94DA0261E0B6
:101010008BE00E94DA028FEF9FEF9093990180930B
:10102000980165EAE62E61E0F62E7FE3C72E7FE1A8
:10103000D72EE1E98E2EE1E09E2E04E611E0442455
:101040004A94542C3201DFEF50E0A52E50E0B52E2B
:10105000E7E4F1E08491E6E6F1E02490E3E9F1E0F1
:101060003490332009F436C181110E946002E32DCF
:10107000F0E0EE0FFF1FE45DFE4FA591B4918C915F
:10108000282209F427C1C0910C0161E08CE00E9484
:10109000AC02CB3029F5F701C491C7FD0AC061E06D
:1010A0008BE00E94DA02CC2309F4A6C0C23009F01A
:1010B000B7C040E150E069E271E08CE891E00E9445
:1010C00062030E94E70368EC70E080E090E00E9419
:1010D0003003A114B10409F4BBCF0E940000B3CFC8
:1010E000CF3F39F78BE080930C01F701C491CF3FDC
:1010F00001F3C13031F168F0C33009F43FC0C430AE
:1011000009F45DC0C7FDD5CF61E08BE00E94DA0233
:10111000CDCF14BC15BC84B5826084BD85B581601B
:1011200085BDF4018491E82FF0E0EE0FFF1FE85831
:10113000FE4F85919491F801849180936D01C0E0F8
:10114000AECF109280001092810080918100886063
:101150008093810080918100816080938100F401FF
:101160008491E82FF0E0EE0FFF1FE858FE4F8591C5
:101170009491F801849180936C0191CF109290002A
:1011800010929100809191008860809391008091ED
:101190009100816080939100F4018491E82FF0E048
:1011A000EE0FFF1FE858FE4F8591949190936B01CD
:1011B00080936A01F80184918093690170CF109245
:1011C000C0001092C1008091C10088608093C1006E
:1011D0008091C10081608093C100F4018491E82F67
:1011E000F0E0EE0FFF1FE858FE4F85919491F80153
:1011F00084918093680153CF85B5887F836085BDD6
:101200008CE787BD40927A0150927B0160927C010D
:1012100070927D0180916E00826080936E0049CF54
:10122000C130C1F480918100887F8160809381000A
:10123000D0928900C0928800409276015092770146
:10124000609278017092790180916F008260809342
:101250006F002FCFC330C1F480919100887F8160EF
:1012600080939100D0929900C092980040927201B0
:1012700050927301609274017092750180917100B7
:1012800082608093710015CFC430B9F48091C100A1
:10129000887F81608093C100FFE3F093CF0040928C
:1012A0006E0150926F016092700170927101809195
:1012B0007200806480937200FCCEC13009F4B8CF14
:1012C00024F4C111F6CE8FE39CCFC33059F2C43061
:1012D00019F3EFCE60E08CE00E94AC0280910C012B
:1012E0008B3059F4F7018491D0930C01813089F04F
:1012F00068F08330A1F08430C1F060E08BE00E94A0
:10130000AC0246E150E06AE371E0D7CE10926E0085
:10131000F4CF80916F008D7F80936F00EECF80912E
:1013200071008D7F80937100E8CF809172008F7B78
:1013300080937200E2CFECE8F1E01382128288EE33
:1013400093E0A0E0B0E084839583A683B78381E136
:1013500091E0918380838FEF9FEF95878487089535
:10136000EE0FFF1F0590F491E02D0994F894FFCF44
:10137000FFFFFFFF00E1000000000000FF00000091
:1013800000DF0162030002F50146020402220200AE
:10139000C180810000000D0A00476572616B205416
:1013A0006572646574656B736900476572616B2073
:1013B000546964616B20546572646574656B73690C
:0213C00000002B
:00000001FF
